:0400000012C0FECF5D
:10000400FDCFFCCFFBCFFACFF9CFF8CFF7CFF6CFA8
:10001400F5CFF4CFF3CFF2CFF1CFF0CFEFCFEECFD8
:10002400EDCFF894EE27ECBBF1E0FBBFEBBFE5BFEF
:10003400F8E1F1BDE1BD8DE0A2E0BB27ED938A9527
:10004400E9F780E094E0A0E6ED930197E9F7EFE5A6
:10005400EDBFE4E0EEBFC0E6D1E029C0BA93AA93B5
:1000640079D100E010E0EC81FD8163D0DE011496CB
:10007400BAD0ED93FC93EC81E2BBEA81FB8159D0C9
:10008400DE011296B0D0ED93FC93EA81E8BB00E068
:1000940010E0EE81FF810E171F0734F4A1E0B0E0F9
:1000A40069D00F5F1F4FF5CF58D128960895E0E02F
:1000B400E8BBEFEFE7BBE0E0E5BBEFE7E4BBE0E084
:1000C400E2BBEFEFE1BBE0E0E3BFE2BFEFBDEEBDBB
:1000D400EDBDECBDE7BDE6BDEBBDEABDE9BDE8BDE8
:1000E400E2BDE5BDE4BDE3BDE5BFE9BFEAB9E0E8D3
:1000F400E8B9E0E0E0BFE6B9EDB9E6BFE8EEF3E069
:1001040022D0E0E0F0E01FD0A0E0B0E01FD022D089
:100114001AD020D0DF01A2DFE4ECF9E020D01FD018
:10012400DF0114D022D00FD020D0DF0197DFE6CF3B
:10013400FFCF0BD18FD0DF01CB01EDECFCEC6CE9F0
:1001440071E4B6D00895FA93EA93089587DFECED4D
:10015400F5E0F9CFEBEFF3E060E070E00895F3DF52
:10016400E8ECFBE060E070E00895E2EEF7E060E0C8
:1001740070E00895109639F08AEF90E00197F1F756
:10018400A8951197C9F70895552342F4503811F4EE
:10019400E0FF04C03196691F791F6BF050E85727C0
:1001A40011F45F9373C05F3F31F0660F000C5795F5
:1001B4006795752F08955F9300200AF073C06CC093
:1001C40050E8192E1522880F991F9527550F8795EA
:1001D40050E8072E0522660F771F7527550F679580
:1001E4000895689401C0E8945F93F2DF703818F0C2
:1001F4007F3F08F44BC056E1571BAAF45195583081
:100204000EF4593030F0EFEFFFEF6FEF7FE777F93F
:100214001AC077275523B9F0EE0FFF1F661F771F0B
:100224005A95D1F710C07727583028F0EF2FF62FC2
:10023400672F5850F9CF552331F076956795F79588
:10024400E7955A95D1F700200AF477D05F91089585
:10025400689401C0E894309760407040B1F0002485
:1002640026F0772312F4009468D0172E7EE1112033
:1002740032F07A95EE0FFF1F661F111CF9CFEF2F96
:10028400F62F612D5F938ADF5F910895EE27FF2794
:10029400662777275F910895EFEFFFEF6FE77FEF12
:1002A4005F910895EFEFFFEF6FE77FE75F910895A8
:1002B4005F9386DF703821F411200AF4EDCFF2CF7A
:1002C400903809F4E3CF01240894970B1BF4D4F37A
:1002D4000020F3CF792F1F932F933F934F93112433
:1002E4001127222733274427552790E2AE17BF074B
:1002F4008607410730F0AE1BBF0B860B410B0894F9
:1003040001C08894551F221F331F111CAA1FBB1F35
:10031400881F441F9A9551F7F901612D4F913F9120
:100324002F911F91662332F0550FEE1FFF1F661F9A
:100334007A9543F229DF5F910895F0956095709561
:10034400E195FF4F6F4F7F4F08956F2F660F660B38
:10035400762F08951A930A930895198108810895B0
:00000001FF
